:020000040800F2
:1000000000000220E1050008DD050008F584000875
:10001000DD050008DD050008DD0500080000000022
:10002000000000000000000000000000DD050008E6
:10003000DD05000800000000DD05000879840008E7
:10004000DD050008DD050008DD050008DD05000808
:10005000DD050008DD050008DD050008DD050008F8
:10006000DD050008DD050008DD05000881800008C9
:100070008D800008E56D000899800008A5800008C3
:1000800065070108B1750008DD050008DD050008F9
:10009000DD050008DD050008DD050008DD050008B8
:1000A000DD050008DD050008DD050008DD050008A8
:1000B00091FB00089DFB0008A9FB0008E5750008FE
:1000C000DD050008F1750008DD05000801F40008F1
:1000D0000DF4000899050108C5050108F905010896
:1000E000DD050008DD05000800000000DD05000852
:1000F000DD050008DD050008DD050008DD05000858
:10010000DD050008DD050008B5FB000819F400084E
:100110002D06010861060108DD050008DD0500085F
:10012000DD050008DD0500083DF4000871F4000855
:1001300099070108DD050008DD050008DD05000858
:1001400000000000000000000000000000000000AF
:10015000DD050008DD050008DD050008950601083D
:10016000FD750008DD05000889840008AD840008DD
:10017000DD050008D1840008DD050008DD05000864
:10018000DD050008DD050008C9060108FD060108B7
:1001900025F4000831F40008DD050008DD0500083D
:1001A000DD050008DD050008DD050008DD050008A7
:1001B000A17D0008DD050008DD050008DD0500085B
:1001C000DD050008DD050008DD050008DD05000887
:1001D000DD050008DD050008DD050008DD05000877
:1001E000DD050008DD050008DD050008DD05000867
:1001F000DD050008DD050008DD050008DD05000857
:10020000DD050008DD050008DD050008DD05000846
:10021000DD050008DD050008DD050008DD05000836
:10022000DD050008DD050008DD0500080000000010
:10023000DD050008DD05000800000000DD05000800
:10024000DD050008DD050008DD050008DD05000806
:10025000DD050008DD050008DD050008DD050008F6
:10026000DD050008DD050008DD050008DD050008E6
:10027000DD050008DD050008310701080000000069
:10028000DD050008DD050008DD05000800000000B0
:0802900000000000DD0500087C
:1002980010B5054C237833B9044B13B10448AFF3B8
:1002A80000800123237010BDE80300240000000033
:1002B8003848010808B5034B1BB103490348AFF39D
:1002C800008008BD00000000EC0300243848010845
:1002D80053B94AB9002908BF00281CBF4FF0FF31A5
:1002E8004FF0FF3000F074B9ADF1080C6DE904CEA1
:1002F80000F006F8DDF804E0DDE9022304B07047F9
:100308002DE9F047089D04468E46002B4DD18A42C0
:10031800944669D9B2FA82F252B101FA02F3C2F1F3
:10032800200120FA01F10CFA02FC41EA030E944084
:100338004FEA1C48210CBEFBF8F61FFA8CF708FBA5
:1003480016E341EA034306FB07F199420AD91CEB7D
:10035800030306F1FF3080F01F81994240F21C81AF
:10036800023E63445B1AA4B2B3FBF8F008FB1033F7
:1003780044EA034400FB07F7A7420AD91CEB04042C
:1003880000F1FF3380F00A81A74240F207816444FC
:10039800023840EA0640E41B00261DB1D440002381
:1003A800C5E900433146BDE8F0878B4209D9002DE5
:1003B80000F0EF800026C5E9000130463146BDE86F
:1003C800F087B3FA83F6002E4AD18B4202D38242D9
:1003D80000F2F980841A61EB030301209E46002D88
:1003E800E0D0C5E9004EDDE702B9FFDEB2FA82F2DD
:1003F800002A40F09280A1EB0C014FEA1C471FFA3B
:100408008CFE0126200CB1FBF7F307FB131140EA21
:1004180001410EFB03F0884208D91CEB010103F1EE
:10042800FF3802D2884200F2CB804346091AA4B2B0
:10043800B1FBF7F007FB101144EA01440EFB00FE84
:10044800A64508D91CEB040400F1FF3102D2A645E9
:1004580000F2BB800846A4EB0E0440EA03409CE788
:10046800C6F12007B34022FA07FC4CEA030C20FA35
:1004780007F401FA06F31C43F9404FEA1C4900FA55
:1004880006F3B1FBF9F8200C1FFA8CFE09FB1811D2
:1004980040EA014108FB0EF0884202FA06F20BD945
:1004A8001CEB010108F1FF3A80F08880884240F295
:1004B8008580A8F102086144091AA4B2B1FBF9F0D9
:1004C80009FB101144EA014100FB0EFE8E4508D9D4
:1004D8001CEB010100F1FF346CD28E456AD9023859
:1004E800614440EA0840A0FB0294A1EB0E01A1423E
:1004F800C846A64656D353D05DB1B3EB080261EBAC
:100508000E0101FA07F722FA06F3F1401F43C5E985
:10051800007100263146BDE8F087C2F12003D840BB
:100528000CFA02FC21FA03F3914001434FEA1C47FD
:100538001FFA8CFEB3FBF7F007FB10360B0C43EAEF
:10054800064300FB0EF69E4204FA02F408D91CEB9F
:10055800030300F1FF382FD29E422DD9023863449D
:100568009B1B89B2B3FBF7F607FB163341EA03413D
:1005780006FB0EF38B4208D91CEB010106F1FF388C
:1005880016D28B4214D9023E6144C91A46EA004683
:1005980038E72E46284605E70646E3E61846F8E615
:1005A8004B45A9D2B9EB020864EB0C0E0138A3E75E
:1005B8004646EAE7204694E74046D1E7D0467BE73F
:1005C800023B614432E7304609E76444023842E7B7
:1005D800704700BFFEE700BF0B480C4A904203D0AB
:1005E800121A0B4913F064FB0A480B4A904203D0D5
:1005F800121A002113F06AFB08F0D0F913F024FB5B
:1006080000F004FAFEE700BF00000024E403002421
:1006180068480108E8030024783A0024704700BFBE
:10062800036810B504469B689847606B20B103685F
:10063800BDE810401B69184710BD00BF704700BFD8
:10064800037A63B9036810B504469B6898476068E5
:1006580020B10368BDE81040DB68184710BD70473B
:100668002DE9F843644E05460C46904606F1C0074E
:1006780006F1D8092DED048B3046203606F0B4F883
:10068800A7EC010AB945F7D15C4E06F5A87006F04B
:10069800E9F806F5B07006F0E5F806F5B87006F06A
:1006A800E1F806F5C07006F0DDF806F5C87006F04A
:1006B800D9F806F5D07006F0D5F896F89431377A5F
:1006C8001BB196F89A317F2B7FD0D6ED4E7A9FEDED
:1006D8004C8AF4EEC87AF1EE10FA08D4B7EE007A34
:1006E800F4EEC77AF1EE10FA78DD9FED468AD6ED82
:1006F800500AF5EEC00AF1EE10FA7AD4F7EE007A55
:10070800F4EE670AF1EE10FA77FEA00AB3EE040AD7
:100718009FED3B9A13F098F8DFED3B7ADFED3B0A4B
:1007280020EE270A3A4801F085F9D6ED517AF4EE21
:10073800C97AF1EE10FA0AD4B7EE007AF4EEC77A65
:10074800F1EE10FAD4BF37EE899AB0EE479AD6ED9B
:10075800537ADFED2B8AF4EEE87AF1EE10FA08D43A
:10076800B7EE007AF4EEC77AF1EE10FA31DDF0EE6A
:10077800008AB8F1000F24D0002612E095ED010A96
:1007880002360835083429EE000A01F065F920EE32
:10079800280A01211F4804ED010A06F0BDFCB045F6
:1007A8000FD9F0EE480A1A483946002FE6D16B688F
:1007B8000236184808356360083406F0ADFCB045C9
:1007C800EFD8BDEC048BBDE8F88387F001073772DA
:1007D8007BE7B0EE007AE7EE878ACAE7D6ED500AE3
:1007E8009FED087AF5EEC00AA7EE878AF1EE10FAB7
:1007F80084D5DFED030A89E7D40B00245C0B0024C1
:10080800000000000024F44800007A440CDD49335D
:10081800480400240C0D002438B50446D0F8B80666
:10082800794D04F5D863C4F89C56984204D0D4F89E
:10083800C016013112F047FFD4F8540604F25C6385
:10084800C4F83856984204D0D4F85C16013112F036
:100858003AFFD4F8F40504F2FC53C4F8D85598428A
:1008680004D0D4F8FC15013112F02DFFD4F8980506
:1008780004F5B463C4F87C55984204D0D4F8A015A4
:10088800013112F020FFD4F8400504F5A963C4F83B
:100898002455984204D0D4F84815013112F013FFBA
:1008A800D4F8E00404F59D63C4F8C454984204D015
:1008B800D4F8E814013112F006FFD4F8800404F5E6
:1008C8009163C4F86454984204D0D4F88814013170
:1008D80012F0F9FED4F8280404F58663C4F80C5421
:1008E800984204D0D4F83014013112F0ECFED4F858
:1008F800D00304F57673C4F8B453984204D0D4F8FE
:10090800D813013112F0DFFED4F8700304F55E73DA
:10091800C4F85453984204D0D4F87813013112F033
:10092800D2FED4F8100304F54673C4F8F452984282
:1009380004D0D4F81813013112F0C5FED4F8B0026F
:1009480004F52E73C4F89452984204D0D4F8B8121F
:10095800013112F0B8FED4F8500204F51673C4F849
:100968003452984204D0D4F85812013112F0ABFE38
:10097800D4F8F80104F50073C4F8DC51984204D0A7
:10098800D4F80012013112F09EFED4F8A00104F54B
:10099800D473C4F88451984204D0D4F8A811013112
:1009A80012F091FED4F8480104F5A873C4F82C514C
:1009B800984204D0D4F85011013112F084FED4F8D2
:1009C800E00004F1E803C4F8C450984204D0D4F815
:1009D800E810013112F077FED4F8800004F18803A2
:1009E8006566984204D0D4F88810013112F06BFE85
:1009F800A06A04F13003E560984203D0216B01310D
:100A080012F061FE204638BDF03F0108F0B5774C82
:100A18000021774E204606F175072DED028B8DB02B
:100A280004F05CFD0421204604F076FC204604F026
:100A38006FFC704B704883ED000A00F0E3FFB2EEE4
:100A4800040A6E4801F070FEDFED6D0A9FED6D0A35
:100A5800694800F0EFFF204604F05AFC2046B0EE4B
:100A6800408A04F075FC07EE900A674A09AB3460C7
:100A7800F8EE677A06F109041D4688EE277A07CA58
:100A880083E807000123042206210B208DF820307B
:100A98008DF821208DF81B2005228DF822300023A7
:100AA8008DF81F008DF81C108DF81E108DF823206E
:100AB8008DF818308DF819208DF81A30337286EDBC
:100AC800017A6B78204615F8022B12348DF8153010
:100AD8008DF814200222059905F0F2FEBC42F0D1EF
:100AE80030680423062249491830494D05F0FCFEB8
:100AF8003068002405F1C007183006F003F93068A3
:100B0800E1B20134183006F013F900230146DFED95
:100B1800410A28461A4696ED010A203505F032FEAC
:100B28000023062C47F8043BE9D13B4D0DF11F0487
:100B38000DF127060A2214F8033C02348DF811201F
:100B480028468DF8103010359FED340A049905F0C9
:100B58006FFEA64202D014F8022CECE700249FEDA9
:100B68002F0A2F488DF80C408DF80D40039905F099
:100B78005FFE03220B239FED290A8DF80C208DF8C8
:100B88000D302848039905F053FE234601220699A3
:100B98002548009406F0CEF92146234806F0BCFA11
:100BA80023460122BDF81A102048009406F0C2F925
:100BB80021461E4806F0B0FA1D490C4804F0A4FB73
:100BC80001210A4804F0CAFB4FF4FA7002F0ACFCA9
:100BD8000021064804F0C2FB4FF4FA7002F0A4FCAE
:100BE8000121024804F08CFBEAE700BF040400245A
:100BF8005C0B0024440400244804002474050024E9
:100C080024396C3400401C46A83F0108650B0024B9
:100C1800D40B00246F12033BAC0C0024000000002E
:100C2800EC0C0024FC0C00240C0D0024200D0024E6
:100C38006906000870B526480024264E264D32461F
:100C480026492DED028B9FED268A046044610462DB
:100C5800C46312F033FDB0EE480ADFED220A2846DD
:100C680000F0B8F9002305F59670C5F82431C5F8E9
:100C7800283101F04FFF28461B4D32461B4912F020
:100C88001DFD214685ED018A6C2205F109002C60C5
:100C98002C7213F01BF84FF60B7132462846C5F834
:100CA800C411C5F83841C5F8D041C5F84C41C5E96B
:100CB8006C14BDEC028BC5E96E44C5E97244C5E904
:100CC8004F44C5E951440A49BDE8704012F0F6BCEA
:100CD8000404002400000024480400242506000819
:100CE80000007A440CDD49335C0B0024210800081D
:100CF80045060008704700BF704700BF704700BF37
:100D0800F7EE006AD0ED157AC0ED117A86EEA77A73
:100D1800C0ED037A80ED127A80ED047A704700BF47
:100D2800D0ED157AF7EE006A90ED177A77EEA77A8C
:100D380067EE877A86EEA77AC6EE877A80ED117A13
:100D480080ED037AC0ED127AC0ED047A704700BFD7
:100D5800D0E91123B7EE006AD2ED036AD3ED037A26
:100D680076EEA77A86EE277AC0ED137AC0ED037A7D
:100D780086EEA76A80ED147A80ED047A80ED176A12
:100D8800704700BFF7EE006AD0ED077AC0ED037A2E
:100D980086EEA77A80ED047A704700BFD0ED077A17
:100DA800F7EE006A90ED097A77EEA77A67EE877A10
:100DB80086EEA77AC6EE877A80ED037AC0ED047ACC
:100DC800704700BFD0E90323F7EE006A92ED037A7B
:100DD800D3ED037A77EE277A86EEA76AC0ED057A17
:100DE800C7EE276A80ED066AC0ED096A704700BF42
:100DF80080ED050A80ED130A80ED160A704700BFE2
:100E080090ED160A80ED140A80ED060A704700BFBF
:100E180080ED050A80ED130A704700BF9FED030AB5
:100E280080ED140A80ED060A704700BF000000003C
:100E380010B50446202112F046FC204610BD00BF24
:100E480010B50446282112F03EFC204610BD00BF14
:100E580010B50446282112F036FC204610BD00BF0C
:100E680010B50446406C03682DED028B9B699847CA
:100E7800A06CB0EE408A03689B69984738EE000A78
:100E8800BDEC028BB1EE400A84ED160A84ED060A29
:100E980010BD00BF10B50446D0E911032DED028B3B
:100EA80090ED068AF0EE408AD3ED066A70EE087A75
:100EB80094ED177A036884ED050A77EEA67A5B69E4
:100EC800A7EE678AB0EE480A9847A06C38EE888A81
:100ED8000368B1EE480A5B699847C4ED158ABDEC12
:100EE800028B10BD10B50446C069064A04F12403FC
:100EF8002260984203D0616A013112F0E4FB204677
:100F080010BD00BFF03F010810B50446C069064A8D
:100F180004F124032260984203D0616A013112F07F
:100F2800D2FB204610BD00BFF03F010810B50446B3
:100F3800C069064A04F124032260984203D0616A1A
:100F4800013112F0C0FB204610BD00BFF03F010880
:100F580010B50446C069084A04F124032260984287
:100F680003D0616A013112F0AEFB2046602112F015
:100F7800AAFB204610BD00BFF03F010810B504468B
:100F8800C069084A04F124032260984203D0616AC8
:100F9800013112F098FB2046602112F094FB2046A4
:100FA80010BD00BFF03F010810B50446C069084AEB
:100FB80004F124032260984203D0616A013112F0DF
:100FC80082FB2046582112F07EFB204610BD00BF50
:100FD800F03F010870EEA07ADFED7C5AB7EE006AA8
:100FE8007B4B67EEA57A86EE004AC6EE276ADFEDF0
:100FF800797A2DE9F04F824693B04FF0000B0DF14E
:10100800380C0DF120080AF1C4020AF130096546CE
:1010180064460292E6468AED000A4646CAED010A8F
:101028000AF1E807CAED025AC6EE264A8AF814B051
:10103800CAED087ACAED097ACAF828908AF84CB03D
:1010480030EE267A93E803000AF1880386EE075A01
:1010580001930AF16403059380EE076A8CE80300A4
:1010680088E803000AF1FC010AF10C008DF840B091
:1010780003910490BCE80F00CAF838204FF0080C20
:10108800554ACAF83000CAF83410CAF83C30CAF8D1
:101098002CC0CAE9112B514ACAED167ACAF80C209D
:1010A8004F4A019BCAED177ACAF880308AED180AB0
:1010B8008AED140A8AED154A8AED060A8AED074A6E
:1010C8008AF86CB0CAED1E7ACAED1F7A07CA03C641
:1010D800327098E8070003C52A708DF841B00FCC2C
:1010E8000924CAF88800019841608260C360CAF880
:1010F80084403C4C8AF8A4B0CAED2C7A8DF83EB0F6
:10110800CAED2D7ACAED2E0ACAED2F7ACAED305AE9
:10111800CAED2A6ACAED2B4ACAED1C6ACAED1D4AF5
:10112800CAF8C8B08AF8CCB0CAED367ACAED377AB0
:10113800CAF8E070CAE9274B2B4CCAF864402B4C1C
:1011480094E8030006240890ADF8241098E80300FA
:101158000E90ADF83C10BEE80F00CAF8E800CAF8D7
:10116800F4300498059BCAF8EC10CAF8F0200399EB
:10117800029ACAF8E440CAF8080150461C4CCAF85A
:101188000C311C4BCAF8F8B0CAF8FC40CAF8C43095
:10119800CAF800B18AF804B1CAED467ACAED477AAE
:1011A800CAF81010CAF868108AED447A8AED455AD0
:1011B8008AED486A8AED347A8AED355ACAF84020B1
:1011C800CAF8982013B0BDE8F08F00BF00803B47F5
:1011D8000C40010800000000344001084C400108A0
:1011E800184001087040010888400108244001089F
:1011F800AC400108C440010890F8A430D0ED2E7A24
:1012080070B504462DED028B80ED020A80ED300AA0
:10121800002B40F0E68077EEA77AD0F8A000B7EE72
:10122800008A27EE800AC8EE007A88EE277AC4ED95
:101238002A7A84ED2B7A70B10368DB689847D4ED7D
:101248002E7A94ED307A77EEA77A27EE877AC8EE71
:10125800077A88EE277A0023D4F89850C4ED2A7AC2
:1012680084ED2B7AC4F8BC30C4ED1C7A84ED1D7A69
:10127800002D4AD02B68664E1A69B24240F0AE8003
:1012880028469B6898476D6B002D3ED02B681A69DD
:10129800B24240F0A38028469B6898476D6B002DAA
:1012A80033D02B681A69B24240F0988028469B6870
:1012B80098476D6B002D28D02B681A69B24240F010
:1012C8008D8028469B6898476D6BF5B12B681A6925
:1012D800B24240F0838028469B6898476D6BA5B161
:1012E8002B681A69B24279D128469B6898476D6B7A
:1012F8005DB12B681A69B24270D128469B6898473D
:10130800686B10B103681B699847B7EE006AD4F898
:10131800F850D4E94223D2ED036AD3ED037A76EE8E
:10132800A77A86EE277AC4ED447AC4ED347A86EE3D
:10133800A76A84ED457A84ED357A84ED486A002DF4
:1013480049D02B68324E1A69B2425BD19B68284655
:1013580098476C6B002C3ED023681A69B2424BD177
:1013680020469B689847646B002C34D023681A6920
:10137800B24241D120469B689847646B002C2AD022
:1013880023681A69B24237D120469B689847646B34
:101398000CB323681A69B2422ED120469B6898473D
:1013A800646BC4B123681A69B24225D120469B6890
:1013B8009847646B7CB123681A69B2421CD12046F5
:1013C8009B689847606B30B10368BDEC028B1B6962
:1013D800BDE870401847BDEC028B70BD28469047A9
:1013E80093E777EEA77AF7EE006A27EE800AC6EE53
:1013F800807A86EEA77A2EE7BDEC028B2046BDE800
:1014080070401047BDEC028B2846BDE8704010477D
:101418002906000810B50446D0E942032DED028BD9
:1014280090ED068AF0EE408AD3ED066A70EE087AEF
:1014380094ED487A036884ED360A77EEA67A5B69FC
:10144800A7EE678AB0EE480A9847D4F80C0138EE40
:10145800888A0368B1EE480A5B699847D4F808019E
:10146800C4ED468A03689B699847D4F80C01B0EE2E
:10147800408A03689B69984738EE000AD4ED367AAB
:10148800F6EE006AB1EE407A37EEC00ABDEC028B88
:1014980020EE260A84ED477A84ED377A10BD00BF26
:1014A80090ED187AB4EE470A70B5F1EE10FA0446DA
:1014B8002DED028B80ED000A00F0D98090F84C30B9
:1014C80080ED180A002B62D1B7EE008A806C84ED9B
:1014D800140AC8EE007AC4ED157A30B10368DB68E7
:1014E800984794ED180AC8EE007A256C84ED140A22
:1014F800C4ED157A84ED060AC4ED077A002D4DD0A7
:101508002B68644E1A69B24246D128469B689847B0
:101518006D6B002D42D02B681A69B2423CD1284627
:101528009B6898476D6B002D38D02B681A69B242BA
:1015380032D128469B6898476D6B002D2ED02B68BA
:101548001A69B24228D128469B6898476D6B2DB31B
:101558002B681A69B2421FD128469B6898476D6B61
:10156800E5B12B681A69B24216D128469B6898479C
:101578006D6B9DB12B681A69B2420DD128469B68E4
:101588009847686B50B103681B69984706E0B7EE47
:10159800007AC7EE007AA8E728469047B7EE006AB7
:1015A800D4F8F850D4E94223D2ED036AD3ED037A94
:1015B80076EEA77A86EE277AC4ED447AC4ED347ABB
:1015C80086EEA76A84ED457A84ED357A84ED486A1B
:1015D800002D49D02B682F4E1A69B24254D19B680E
:1015E800284698476C6B002C3ED023681A69B24293
:1015F80044D120469B689847646B002C34D02368FC
:101608001A69B2423AD120469B689847646B002C0D
:101618002AD023681A69B24230D120469B6898477D
:10162800646B0CB323681A69B24227D120469B68C1
:101638009847646BC4B123681A69B2421ED1204628
:101648009B689847646B7CB123681A69B24215D1CC
:1016580020469B689847606B30B10368BDEC028BED
:101668001B69BDE870401847BDEC028B70BDF7EEF2
:10167800006AB0EE470AC6EE877A36E7BDEC028B01
:101688002046BDE870401047BDEC028B2846BDE8F7
:101698007040104729060008D0ED2E7AB4EE670A8C
:1016A8002DE9F041F1EE10FA04462DED028B80EDA4
:1016B800010A00F07F8190F8A43080ED2E0A30EE08
:1016C800000A90ED307A002B40F0EE80B7EE008AE9
:1016D800D0F8A00020EE077AC8EE077A88EE277ABD
:1016E800C4ED2A7A84ED2B7A70B10368DB689847D9
:1016F80094ED2E0A94ED307A30EE000A20EE077A47
:10170800C8EE077A88EE277AD4F89860C4ED2A7A6A
:1017180084ED2B7AC4ED1C7A84ED1D7A002E50D00E
:101728003368974D1F69AF4240F02C8130469B6863
:101738009847766B002E00F027813368D3F8108025
:10174800B84540F0508130469B689847766B002E2C
:1017580000F01A8133681F69474540F0138130460D
:101768009B689847766B002E00F00E8133681A69E3
:10177800BA4240F03F8130469B689847766B002E0E
:1017880000F0028133681A69AA4240F0338130467A
:101798009B689847766B002E00F0F68033681A69CC
:1017A800AA4240F0278130469B689847706B002812
:1017B80000F0EA8003681B69984794ED2E0A30EE22
:1017C800000AD4ED027A94F8A430C4ED307A002BE4
:1017D80040F0E780B7EE008AD4F8A00027EE800A30
:1017E800C8EE007A88EE277AC4ED2A7A84ED2B7A3F
:1017F80070B10368DB689847D4ED2E7A94ED307A9F
:1018080077EEA77A27EE877AC8EE077A88EE277AE6
:101818000023D4F89860C4ED2A7A84ED2B7AC4F8B2
:10182800BC30C4ED1C7A84ED1D7A002E47D0336895
:10183800534D1A69AA4240D130469B689847766B47
:10184800002E3CD033681A69AA4236D130469B68CC
:101858009847766B002E32D033681A69AA422CD189
:1018680030469B689847766B4EB333681A69AA422C
:1018780023D130469B689847766B06B333681A695C
:10188800AA421AD130469B689847766BBEB1336836
:101898001A69AA4211D130469B689847706B70B19B
:1018A80003681B6998470AE0F7EE006A20EE077A9A
:1018B800C6EE877A86EEA77A26E730469047B7EED7
:1018C800006AD4F8F860D4E94223D2ED036AD3ED74
:1018D800037A76EEA77A86EE277AC4ED447AC4EDC9
:1018E800347A86EEA76A84ED457A84ED357A84EDFC
:1018F800486A002E3FD03368214D1A69AA426CD13C
:101908009B6830469847746B002C34D023681A695A
:10191800AA425CD120469B689847646B002C2AD069
:1019280023681A69AA4252D120469B689847646B7B
:101938000CB323681A69AA4249D120469B68984784
:10194800646BC4B123681A69AA4240D120469B68D7
:101958009847646B7CB123681A69AA4237D120463C
:101968009B689847606B30B10368BDEC028B1B69BC
:10197800BDE8F0411847BDEC028BBDE8F08100BF1F
:10198800290600083046B84794ED2E0AD4ED027AAD
:1019980094F8A43030EE000AC4ED307A002B3FF4FE
:1019A80019AFF7EE006A27EE800AC6EE807A86EE57
:1019B800A77A2DE737EEA70A90ED307AF7EE006A9E
:1019C80020EE077AC6EE877A86EEA77A9CE6BDEC0B
:1019D800028B2046BDE8F0411047BDEC028B304633
:1019E800BDE8F04110473046C04794ED2E0A30EE6E
:1019F800000AE6E63046904794ED2E0A30EE000ADB
:101A0800DFE600BF10B504462DED028BB0EE408A2C
:101A180030EE000AFFF7F0FB04F5927000F038F89A
:101A2800B0EE480A04F59670BDEC028BBDE8104094
:101A380000F0C8BE10B52DED028BB0EE608A0446EA
:101A4800FFF72EFD2046B0EE480ABDEC028BBDE83C
:101A58001040FFF721BE00BF30B500F5927585B084
:101A6800044603AA02A92846CDED010A00F014F89D
:101A7800DDED010A04F596709DED030A01F092FB75
:101A88002046FFF7C7FC284600F00CF805B030BD2B
:101A9800002343600360704782ED000A81ED000A6D
:101AA800704700BFF6EE007AD0ED006AB5EE007A16
:101AB80090ED016A80ED000A66EEA77AC0ED016A32
:101AC800E6EE077AE0EE077AB0EE670A704700BFE5
:101AD80003689B68184700BF704700BF80ED050A80
:101AE80080ED130A704700BFF0EE007A90ED130AFC
:101AF80090ED157A97EE270A80ED140A80ED060A14
:101B0800704700BF704700BF704700BF80ED050AEF
:101B180080ED130A704700BF704700BF426C836CAA
:101B2800C2600361704700BFD0E91123B7EE006AB5
:101B3800D2ED046AD3ED047A76EEA77A86EE277A98
:101B4800C0ED147AC0ED047A86EEA76A80ED137AA8
:101B580080ED037A80ED176A704700BFF7EE006AE0
:101B6800D0ED167AC0ED117A86EEA77AC0ED037A29
:101B780080ED127A80ED047A704700BF704700BF8D
:101B8800D0E90323F7EE006A92ED047AD3ED047AE4
:101B980077EE277A86EEA76AC0ED067AC7EE276A3F
:101BA80080ED056AC0ED096A704700BFF7EE006A6C
:101BB800D0ED087AC0ED037A86EEA77A80ED047A34
:101BC800704700BF80ED050A80ED130A704700BF1B
:101BD80090ED110AD0ED157A20EE270A80ED140A4F
:101BE80080ED060A704700BF836B90ED077AD3ED4E
:101BF800037A90ED0A0A67EE877A10B527EE800A15
:101C08000446C0ED0B7A80ED0C0A11F0B9FD84EDA5
:101C18000D0A10BD10B50446242111F054FD2046CC
:101C280010BD00BF10B504462C2111F04CFD204614
:101C380010BD00BF10B50446202111F044FD204618
:101C480010BD00BF10B504463C2111F03CFD2046F4
:101C580010BD00BF10B50446406C03689B699847E7
:101C6800A06C03689B69984794ED177AD4E9113200
:101C780092ED060AD3ED067A70EE677AA7EEC70AE8
:101C8800C4ED187A84ED160A84ED060A10BD00BF6B
:101C9800836C10B5D3ED067A04462DED028B90EDDA
:101CA800168AF0EE408A406C38EE678A94ED180A7E
:101CB8000368C4ED058A38EE288A5B6938EE000AA5
:101CC8009847A06CB0EE480A03685B699847C4ED72
:101CD800158ABDEC028B10BD036F90ED157AD3ED1C
:101CE800037A90ED180A67EE877A10B527EE800A16
:101CF8000446C0ED197A80ED1A0A11F041FD84ED11
:101D08001B0A10BD036F90ED157AD3ED037A90EDA1
:101D1800180A67EE877A10B527EE800A0446C0EDE8
:101D2800197A80ED1A0A11F02BFD626CA36C84ED10
:101D38001B0AE260236110BD03680D4A9B68934249
:101D480015D1036F90ED157AD3ED037A90ED180A4B
:101D580067EE877A10B527EE800A0446C0ED197A37
:101D680080ED1A0A11F00CFD84ED1B0A10BD18470E
:101D7800E11C000890ED130AB2EE006AD0ED187A63
:101D8800B5EEC00AD0ED1B4AD0ED176AF1EE10FA95
:101D9800CCBF012300234CBF012200229B1A07EE6F
:101DA800103AB8EEC77A60EE075A67EE266A65EE13
:101DB800A77A37EEA47AB4EEC67AF1EE10FA40F1BB
:101DC800C680DFEDAD5A9FEDAD6A9FEDAD4A9FED40
:101DD800AD5AA7EE256A67EE075AA7EE045AA5EE94
:101DE800865A9FEDA96AB7EE004AB4EEC67AF1EEBC
:101DF80010FA00F1A98037EE457A35EE044ADFED96
:101E0800A35A9FEDA36A27EE257AB4EEC67AF1EEBF
:101E180010FA47DCF0EE455AC5EE843A74EEE77ADC
:101E2800B2EE006AF4EEC67AF1EE10FA35EE635AB5
:101E380040F1B8809FED906ADFED905ADFED904A4F
:101E48009FED907AE7EE865A27EEA76AA7EEA47A66
:101E5800A5EE867A9FED8C6AF7EE004AF4EEC67A14
:101E6800F1EE10FA00F19B8077EEC77A77EE244AFC
:101E7800DFED865A9FED866A67EEA57AF4EEC67A9C
:101E8800F1EE10FA37DCF0EE477A87EEA46A37EE07
:101E9800467A35EE477AA6EEC70A80ED140A80ED39
:101EA800060A7047B5EEC07ABDEEC76AF1EE10FAC1
:101EB80000F1A080B8EEC62A16EE103AF7EE005AE6
:101EC800DFED742ADFED743A7F3337EE427A9FED07
:101ED800733AB0EE656ADB05F0EE455AE7EE223A52
:101EE800A7EE036A27EE077AA3EE876A07EE103A91
:101EF800E6EE475A90E7F5EEC07ABDEEE76AF1EEF6
:101F080010FA00F19D80F8EEC62A16EE103AF7EEA8
:101F1800005A9FED603A9FED604A7F3377EEE27A90
:101F2800DFED5E3AB0EE656ADB05A7EE834AA7EE01
:101F3800A36A67EEA77A05EE903AA7EE846AF0EEF8
:101F4800477AE5EEC67AA0E79FED555A57E717EEB0
:101F5800103A9FED545A9FED543A23F0FF429FEDFB
:101F6800534A9FED536AC3F3C75342F07E52DFEDE5
:101F78004B3A7F3B05EE902AA5EE856AA5EE834A8B
:101F880025EEA55A05EE903AF8EEE55AA5EE046A54
:101F9800B0EE475A35EE866AA6EE635A21E79FED02
:101FA800407A65E717EE903ADFED3E5ADFED3E3AAC
:101FB80023F0FF42DFED3D4A9FED3D6AC3F3C7536F
:101FC80042F07E529FED354A7F3B07EE102AA7EE7E
:101FD800256AE7EE234A67EE075A07EE103AB8EE8D
:101FE800C77AA4EEA56A37EE066AB0EE677AA6EE5F
:101FF800447A2FE716EE103AF7EE005A9FED252A9D
:10200800013BDFED253ADFED252A03EE103A16EE07
:10201800103AB0EE656AB8EEC33A7E33F0EE455A30
:10202800DB0537EE437AE7EE023AA7EE226A27EE9F
:10203800077AA7EE236A07EE103AE6EE475AEBE670
:1020480016EE103AF7EE005ADFED122A013B9FED2B
:10205800124A9FED123A03EE903A16EE103AB0EE9D
:10206800656AF8EEE33A7E33DB0577EEE37AA7EEAE
:10207800A24AA7EE836A5CE75C44ACBA459F433D3D
:10208800BBF4B93E149E213F79DA55C03BAAB83F4C
:102098000000FCC23FB2A23D81DE683E1872313FAB
:1020A80000000000B77D4940C6FA273E9EA78CBFB6
:1020B80094A90DC010B50446C069064A04F124036A
:1020C8002260984203D0616A013111F0FCFA20467F
:1020D80010BD00BFF03F010810B50446C069064AAC
:1020E80004F124032260984203D0616A013111F09F
:1020F800EAFA204610BD00BFF03F010810B50446BB
:10210800C069064A04F124032260984203D0616A38
:10211800013111F0D8FA204610BD00BFF03F010888
:1021280010B50446C069064A04F1240322609842A7
:1021380003D0616A013111F0C6FA204610BD00BF14
:10214800F03F010810B50446C069064A04F12403AB
:102158002260984203D0616A013111F0B4FA204636
:1021680010BD00BFF03F010810B50446C069064A1B
:1021780004F124032260984203D0616A013111F00E
:10218800A2FA204610BD00BFF03F010810B5044672
:10219800C069064A04F124032260984203D0616AA8
:1021A800013111F090FA204610BD00BFF03F010840
:1021B80010B50446C069084A04F124032260984215
:1021C80003D0616A013111F07EFA2046742111F0C2
:1021D8007AFA204610BD00BFF03F010810B504464A
:1021E800C069084A04F124032260984203D0616A56
:1021F800013111F068FA20465C2111F064FA20469A
:1022080010BD00BFF03F010810B50446C069084A78
:1022180004F124032260984203D0616A013111F06D
:1022280052FA2046742111F04EFA204610BD00BF24
:10223800F03F010810B50446C069084A04F12403B8
:102248002260984203D0616A013111F03CFA2046BD
:10225800742111F038FA204610BD00BFF03F010884
:1022680010B50446C069084A04F124032260984264
:1022780003D0616A013111F026FA2046582111F085
:1022880022FA204610BD00BFF03F010810B50446F1
:10229800C069084A04F124032260984203D0616AA5
:1022A800013111F010FA2046642111F00CFA204691
:1022B80010BD00BFF03F010810B50446C069084AC8
:1022C80004F124032260984203D0616A013111F0BD
:1022D800FAF920465C2111F0F6F9204610BD00BF3E
:1022E800F03F01082DE9F04F91B011230022044678
:1022F80006AD0AA904A80A93D54F0DF13009049533
:1023080011F0F0F90A9B064604904FF0000C069372
:102318000FCFF3603B7830607160B26033740A9B12
:10232800049A059302F803C0CDF82890DDE90476F5
:10233800F74202D0002F00F0EE810F2E039600F234
:10234800D481012E40F0CE813B784A468DF830305A
:1023580000230B96935504F124066360237200232F
:10236800BC4A6361A361BC4B226023610A9BBB4AE0
:102378004B45E661E26000F0C7810C9AE361626256
:1023880000230B9A04986363E363A84284F84030FF
:10239800B34B2262A363B34AAF4B22604FF00002F3
:1023A800A3656364E360AD4BE26422656265A36480
:1023B800236103D00699013111F085F9AA4A04F581
:1023C8009071AA4BA846226004F180020091002671
:1023D800A267CC460192CE46DFEDA57A4F4684F837
:1023E8006460F7EE002AC4ED1C7ACA46C4ED1D7A73
:1023F800CB469FEDA02A9FEDA07ADFEDA06A9FED66
:10240800A04ADFEDA05A9FEDA06ADFEDA04A9FED3C
:10241800A05A9FEDA03ADFEDA03A93E80700A8E89C
:10242800030088F8002095E80700ACE803008CF862
:1024380000208DF83960BEE80F00C4F8800004F170
:10244800E00E0198C360954B82604160C4F89430F7
:102458000923C4F89860E367914B84F89C60E365AE
:10246800904B8DF8386084ED2C2AC4F8D8E0C4ED80
:102478002A7AC4ED2B7AC4ED2D7AC4ED347AC4EDF2
:10248800357A84ED2E4AC4ED286AC4ED1A6A84EDC3
:10249800297A84ED1B7A84F8C460C4F8F060C4F823
:1024A800F86093E8030085E8030089E803000FCF8C
:1024B800C4F8EC300823C4F8E00004F1BC07C4F801
:1024C800E410C4F8E820C4F8DC3084F8FC6094ED2B
:1024D800044A754B34EE077A0495C4F8F43004F1D5
:1024E8005C03C4ED447AC2EE876AC4F804316F4BCA
:1024F800C4ED457AC4F8BC3004F1F403C4ED477A5E
:10250800C4EE072A63602366694B84ED437A84ED41
:10251800337A6763C4F89070C4F8004193E8070001
:102528002B46C4ED426AC4ED326A26EEA57A03C38F
:10253800092388F800208DF8216027EE060A059304
:10254800C4ED462A95E80700AAE803008CF80020A5
:1025580004F5A27C8DF83960C4ED4B4A84ED4C5AE1
:10256800C4F83CC1C4ED594A84ED5A5A84ED5E3A28
:10257800C4ED5F3AC4ED5D5A84ED606AC4ED4D7AEE
:10258800C4ED4E7AC4ED5B7AC4ED5C7A84ED617A71
:10259800C4F8246184F82861C4F89071C4F85461BF
:1025A800C4F85C6184F86061BBE80F00C4F850317E
:1025B8000923C4F84401C4F840313E4BC4F848111B
:1025C800C4F820313C4BC4F84C21C4F8583104F508
:1025D800AC73C4F8C03084ED620A11F0D1F8D4F8B5
:1025E8009031D4ED5D6A93ED037AD4ED607A27EEED
:1025F800267A84ED630A27EE270A84ED617A84ED52
:10260800620A11F0BDF8D4F86431D4F89021C4F806
:102618002C31D4ED5D6A92ED037AD4ED607A27EE21
:10262800267AD4F8683184ED630A009927EE270AE0
:10263800C4F83031214BC4F8F010C4F8203184EDCF
:10264800617A84ED620A11F09BF8049838E000BFC3
:10265800E0400108F03F0108286B6E4E5F7089303A
:102668008C410108A4410108C8410108184001082B
:10267800000000000F300C30655A4D38AD919F4670
:1026880000803B4795BFD63227BD1A425F7089301C
:10269800286B6E4E61C3D33C61C3533D7040010843
:1026A8008840010820410108EC4101080442010862
:1026B8002C410108404201082842010864420108EF
:1026C80084ED630AA84203D00699013110F0FBFF9C
:1026D800134B2046009AC4F82031C4F8F02011B0FA
:1026E800BDE8F08FD6B94A4632E60AA8002203A907
:1026F80010F0F8FF039B0A900C933246394611F00C
:10270800D7FA039E0A9A23E64F460FCF6062A1626A
:10271800E262236334E6034810F0DDFF4846ECE745
:1027280088420108F4400108DFED257A70B500F50C
:10273800916530EE270A044695ED087AB4EE470A0B
:102748002DED028BF1EE10FA2FD090F8903485ED34
:10275800080A2BBBB7EE008AD0F88C0485ED030A73
:10276800C8EE007AC5ED047A30B10368DB68984793
:1027780095ED080AC8EE007AD4F8840404F58A6353
:1027880085ED030AC5ED047A83ED030AC3ED047AE7
:1027980090B10368BDEC028B1B69BDE87040184717
:1027A800B7EE007AC7EE007AE6E7F7EE006AB0EE19
:1027B800470AC6EE877ADFE7BDEC028B70BD00BF23
:1027C80000409C4590F84831D0ED577A70B50446E2
:1027D8002DED028BB0EE408A80ED590A002B40F0B7
:1027E800C18077EEA77AD0F84401F7EE008A27EE89
:1027F800807AC8EE877A88EEA77AC4ED537A84ED9A
:10280800547A70B10368DB689847D4ED577A94ED31
:10281800597A77EEA77A27EE877AC8EE877A88EE14
:10282800A77A0023D4F83C01C4ED537A84ED547A96
:10283800C4F86031C4ED457A84ED467A10B1036876
:102848001B69984794F87833D4EDE37A84EDE58AE8
:10285800002B7CD177EEA77AD4F87403F7EE008AC0
:1028680027EE887AC8EE877A88EEA77AC4EDDF7AF1
:1028780084EDE07A70B10368DB689847D4EDE37AB9
:1028880094EDE57A77EEA77A27EE877AC8EE877A0D
:1028980088EEA77A0023D4F86C03C4EDDF7A84EDC0
:1028A800E07AC4F89033C4EDD17A84EDD27A10B1CD
:1028B80003681B69984704F2E44594F8EC3485ED05
:1028C800098ABBBB95ED070AF7EE008AD4F8E8043D
:1028D80030EE000A20EE088AC8EE887A88EEA77AD9
:1028E800C5ED037A85ED047A70B10368DB68984713
:1028F800D5ED077A95ED097A77EEA77A27EE877AEC
:10290800C8EE877A88EEA77AD4F8E00404F2AC43DC
:102918000022C5ED037A85ED047A2A62C3ED037AB5
:1029280083ED047A48B30368BDEC028B1B69BDE8EC
:1029380070401847D5ED077AF7EE006A77EEA77A68
:1029480027EE888AC6EE887A86EEA77ADCE777EEE5
:10295800A77AF7EE006A27EE887AC6EE877A86EEBF
:10296800A77A97E777EEA77AF7EE006A27EE807ADC
:10297800C6EE877A86EEA77A53E7BDEC028B70BD68
:10298800F7EE007A264A844687EE807ADFED257ACC
:102998002DE9F0418CB000240CF124054FF0080813
:1029A80002AB0DF1200E204F204ECCF804408CF8DD
:1029B8000840CCED057ACCED067ACCF81C50CCF862
:1029C8002080CCF83440CCF83C408CF84040CCF81F
:1029D8003870CCED137ACCED147A8CED150A8CEDA9
:1029E800110A8CED127A8CED030A92E803008EE846
:1029F800030083E803008DF82840BEE80F00CCF8F8
:102A080024006046CCF82810CCF82C20CCF83030C4
:102A18008CED047ACCF800600CB0BDE8F08100BF02
:102A28000C40010800000000344001084C40010837
:102A38002DE9F04F324F8DB004460E4602AB0DF132
:102A4800200C1546DFED2F7A9FED2F7A04F1240E26
:102A58004FF0060BDFF8B4A0C4ED057AB7EE006AB4
:102A6800C4ED067A04F1380884ED037A84ED137A0C
:102A7800C4F81CE0C4F820B0C4F838A0DFF890907F
:102A880097E8030000270290ADF80C108DF8267027
:102A9800676027726763E76384F8407093E8030010
:102AA800C4E911650890ADF82410BCE80F00606215
:102AB8002046A162E2622363C4ED157AD6ED036A6B
:102AC800C4ED167AD5ED037AC4F8009076EEA77AAD
:102AD800C6F80480C5F8048086EE277AC4ED137A18
:102AE800C4ED037A86EEA76A84ED147A84ED047A3D
:102AF80084ED176A74636C630DB0BDE8F08F00BF96
:102B080024400108000000005F708930AC400108D3
:102B1800C44001082DE9F04F0446B7EE000A00252D
:102B280004F1B00904F5B47804F5E4772DED068BCB
:102B38008FB09FEDB98AFFF723FF04F158039FED8B
:102B4800B70A0DF1100A18460AEE103AFFF718FFF7
:102B58009FEDB30A48460DF1280BFFF711FF04F566
:102B6800387256465B460192DC46AE4A04F5967EBC
:102B78009FEDAD7ADFEDAD7ADFEDAD6ADFEDAD9AB1
:102B8800C4F824E1C4F80C5184F8105184ED478A44
:102B980084ED488AC4F83C51C4F8445184F848513B
:102BA8009FEDA59ADFEDA58A07CA03C63270A44E29
:102BB8009AE8070003C31A708DF83150BCE80F007B
:102BC800C4F838310923C4F82C01C4F828319D48C9
:102BD8009D4BC4F830111AEE101AC4F84031C4F8ED
:102BE80034214A4684ED558AC4ED576A84ED537AF8
:102BF80084ED457AC4ED547AC4ED467AC4F80801E8
:102C0800404684ED568A84ED588AC4ED599AFFF7F8
:102C18000FFF424604F584713846FFF709FF3A462C
:102C2800214604F50A70FFF703FF5F468DF834501C
:102C380004F52B7C04F5227E04F53078C4F8A4C290
:102C4800C4F85CE2C4F82C82C4F88C5284F8905220
:102C580084EDA78A84EDA88AC4F8BC52C4F8C4528B
:102C680084F8C85284EDB39AC4EDB48A9FED770A0C
:102C7800DFF8EC91DFF8EC8196E807008AE80700B6
:102C88008BE807000FCF0C27C4F8B012C4F8B8328D
:102C9800C4F8A8726E4FC4F8AC02C4F8B422C4F8E1
:102CA800C0725F4684EDB58A6A4A9DED01AAC4F8F0
:102CB80088221AEE100A84EDB68A84EDB78A84ED6C
:102CC800A59AC4EDA68AFFF75BFE5649D6465B4631
:102CD80004F5577C604EC4F83C53C4F854C384F8D8
:102CE800405384EDD38A84EDD48AC4F86C53C4F875
:102CF800745384F8785384EDE18A07C9AEE8030079
:102D08008EF800209AE8070003C31A708DF8315036
:102D18000FCFC4F85C0304F23C47C4F860130921E0
:102D2800C4F868334748484BC4F864231AEE102A9D
:102D3800C4F87033C4F8581304F54E7184EDE28A70
:102D4800C4F88C635E46C4F8380304F56670C4F8AA
:102D58007C93C4F8449304F57E79C4F88083C4F85E
:102D6800488304F58668C4EDE59A84EDE48AFFF7A4
:102D78005FFE04F58161324B04F2044E019104F2C6
:102D88001C4C8DF83450C4F8FC5384F800548EED74
:102D9800028A8EED038AC4F814C4C4F82C54C4F80B
:102DA800345484F8385493E807008AE807008BE81D
:102DB80007000FCEC4F81C040C20C4F82834244B98
:102DC800C4F82014C4F83034C4F82424C4F818040F
:102DD80004F58A601F4A87ED009AC7ED018A87EDDE
:102DE800028A87ED038A019988ED078AC4F89C83D3
:102DF8008EED009AC1ED008AC4F8F823C4F8CC938C
:102E0800FFF770FA04F2E453144A20461A600FB030
:102E1800BDEC068BBDE8F08F0000000000005C43AD
:102E280000401C4618400108ABAA2641A59BC43D9A
:102E3800BD37863500803B475F708930286B6E4E02
:102E480038410108884001087040010800E09245B7
:102E580050410108684101080CDD49330024F44859
:102E680097A15D4366D9933B90ED055AB2EE006A8F
:102E7800D0ED0A7AB5EEC05A90ED0D4AD0ED096A48
:102E8800F1EE10FACCBF012300234CBF012200222F
:102E98009B1A07EE103AB8EEC77A65EE075A67EE46
:102EA800266A65EEA77A34EE277AB4EEC67AF1EE92
:102EB80010FA40F1C480DFEDAC5A9FEDAC6ADFED4B
:102EC800AC3ADFEDAC4AA7EE256A67EE075AE7EEA3
:102ED800234AE5EE864A9FEDA86AF7EE003AB4EE7B
:102EE800C67AF1EE10FA00F1A78037EE647A74EE34
:102EF800A33ADFEDA25A9FEDA26A27EE257AB4EE37
:102F0800C67AF1EE10FA45DCF0EE645A85EEA33A83
:102F180074EE677AB2EE006AF4EEC67AF1EE10FA51
:102F280074EEC34A40F1B6809FED8F6ADFED8F5A89
:102F38009FED8F4A9FED8F7AE7EE865A27EEA76AB4
:102F4800A7EE847AA5EE867A9FED8B6AB7EE004AE3
:102F5800F4EEC67AF1EE10FA00F1998077EEC77AAE
:102F680037EE044ADFED855A9FED856A67EEA57A4C
:102F7800F4EEC67AF1EE10FA35DCF0EE477A87EE19
:102F8800846A37EE467A34EEC77AA6EEC75A80EDE1
:102F9800065A7047B5EEC07ABDEEC76AF1EE10FA70
:102FA80000F1A080F8EEC61A16EE103AF7EE005AB5
:102FB8009FED742A9FED743A7F3337EE617ADFED27
:102FC800732AB0EE656ADB05F0EE645AA7EE023AA2
:102FD800A7EE226A27EE077AA3EE076A07EE103AF1
:102FE800E7EE465A92E7F5EEC07ABDEEE76AF1EEF3
:102FF80010FA00F19D80B8EEC62A16EE103AF7EEE8
:10300800005ADFED602ADFED603A7F3377EEC27A4F
:103018009FED5E3AB0EE656ADB05E7EEA23AA7EEF1
:10302800836A67EEA77A05EE903AA7EEA36AF0EEF8
:10303800477AE5EEC67AA2E7DFED554A59E717EE7B
:10304800103ADFED544ADFED542A23F0FF42DFED5A
:10305800533A9FED536AC3F3C75342F07E529FED34
:103068004B3A7F3B05EE902AA5EEA46AE5EEA23A1C
:1030780065EEA54A05EE903AF8EEE55AA4EEA36A85
:10308800F0EE474A35EE866AE6EE434A23E79FEDBF
:10309800407A67E717EE903ADFED3E5A9FED3E3AE9
:1030A80023F0FF429FED3D4A9FED3D6AC3F3C753AE
:1030B80042F07E52DFED353A7F3B07EE102AA7EE4D
:1030C800256AA7EE034A67EE075A07EE103AB8EEEC
:1030D800C77AA4EE256A37EE066AB0EE677AA6EEDE
:1030E800637A31E716EE103AF7EE005ADFED251A4B
:1030F800013B9FED253A9FED252A02EE903A16EE08
:10310800103AB0EE656AF8EEE22A7E33F0EE645AC1
:10311800DB0537EE627AA7EE213AA7EE026A27EEC0
:10312800077AA7EE036A07EE103AE6EE475AEDE68D
:1031380016EE103AF7EE005A9FED122A013BDFED2A
:10314800123ADFED122A03EE103A16EE103AB0EEFC
:10315800656AB8EEC33A7E33DB0577EEC37AE7EEED
:10316800823AA7EEA26A5CE75C44ACBA459F433D4D
:10317800BBF4B93E149E213F79DA55C03BAAB83F4B
:103188000000FCC23FB2A23D81DE683E1872313FAA
:1031980000000000B77D4940C6FA273E9EA78CBFB5
:1031A80094A90DC0DFEDAA7A2DE9F04100F59166EA
:1031B80070EEA70A044696ED087AF4EE470A2DED5C
:1031C800068BF1EE10FAB0EE408A00F0398190F8E3
:1031D8009034C6ED080A002B40F02D81F7EE008AE6
:1031E800D0F88C04C6ED030AC8EEA07AC6ED047ABE
:1031F80030B10368DB689847D6ED080AC8EEA07AB4
:10320800D4F8840404F58A63C6ED030AC6ED047A8B
:10321800C3ED030AC3ED047A10B103681B6998472C
:10322800D4F86C02B0EE00AA84EDB78AF6EE008AF4
:10323800036804F5866704F2445504F5AE689B6993
:103248009847D4F87002B0EE408A03689B699847A3
:1032580078EE007A94EDB76AD4F86C02B0EE679A0B
:10326800D4F87022F1EE677A0368D4ED326AA6EEDC
:103278000A9A5B69C4ED907AD4ED319AC4EDA07ACC
:10328800C4EDA77A79EEA69AC4EDB57A84EDA89A2A
:1032980090ED068A69EEA89AD2ED066A79EE087A68
:1032A80094EDA17A84EDB69A84ED8F9A77EEA67A9A
:1032B800A7EE678AB0EE480A9847D4F8700239EE4C
:1032C800080A0368B1EE400A5B699847D4F8DC0342
:1032D80084ED9F9A0368C7ED079A9B699847D4F8CD
:1032E800E003B0EE408A03689B69984778EE007A5D
:1032F800D7ED075A04F20C4394EDBE6AB0EE679A14
:10330800D4EDFD6AF1EE677A94EDBD7AD4EDBC9AFE
:10331800A5EE8A9AD4F8DC03C4EDEC7A37EE467A47
:10332800C4EDFC7A69EEA89AC3ED007A04F58263CD
:10333800C7ED057A67EE299A87ED069A04F20C57CD
:1033480083ED009A90ED068AD4F8E03379EE087A96
:1033580084EDEB9A93ED067A036877EE877A5B69DA
:10336800A6EEE78AB0EE480A9847D4F8E00339EEAB
:10337800088A0368B1EE480A5B699847D4F8500593
:1033880084EDFB9A0368C6ED079A04F5B5669B6958
:103398009847D4F8540503689B699847D4F854258E
:1033A800D4F850353046D2ED067AD3ED066A04F2E9
:1033B800AC43D5ED095A77EEE66A93ED066A93EDCC
:1033C800057AE6EEE57AC5ED0A6A37EE067A67EE23
:1033D800288AC5ED087AC7ED067AC8ED057AC6EDE4
:1033E800057AFFF741FD96ED069AD4F8543595ED28
:1033F800088A95ED0A0A88ED069AD3ED067AD4F87C
:10340800500538EE678A87ED059A036838EE098A11
:103418005B6938EE000A9847D4F85405B0EE480ABC
:1034280003685B699847B0EE680A85ED079ABDECBA
:10343800068BBDE8F081B7EE007AC7EE207ADFE6AA
:10344800F7EE006AF0EE470AC6EE877AD8E600BFC4
:1034580000409C45704700BF0F4B1B780BB90120FB
:10346800704710B504464FF47A700C4AB0FBF3F37A
:103478001068B0FBF3F000F0E1F80F2C00D808B1A9
:10348800012010BD002221464FF0FF3000F076F8F1
:10349800034B00201C6010BD0400002454000024CD
:1034A8000800002438B50320124D00F055F8124CDE
:1034B80000F0BEFB114A12499369C3F30323CB5CA6
:1034C80003F01F0320FA03F30E202B60926902F029
:1034D8000F028A5C02F01F02D3402360FFF7BCFF93
:1034E80010B10124204638BD0446FFF7B3FF20463B
:1034F80038BD00BF5400002458000024004402587E
:1035080008430108034A044B11681B780B441360F5
:10351800704700BF340D002404000024014B1868D4
:10352800704700BF340D002438B50446FFF7F6FF96
:103538000546631C02D0044B1B781C44FFF7EEFFC2
:10354800431BA342FAD338BD04000024014B18687A
:10355800000C70470010005C06494FF6FF0C000293
:10356800054BCA6800F4E06002EA0C02104303430A
:10357800CB60704700ED00E00000FA051B4BDB68EC
:10358800C3F3022300B5C3F1070E03F1040CBEF127
:10359800040F28BF4FF0040EBCF1060F1AD9033BE5
:1035A8004FF0FF3C0CFA03FC22EA0C024FF0FF3C00
:1035B80000280CFA0EFC21EA0C0101FA03F141EA99
:1035C80002010ADB09010A4BC9B2034483F800135C
:1035D8005DF804FB00221346E8E700F00F0009013C
:1035E800044BC9B2034419765DF804FB00ED00E012
:1035F80000E100E0FCEC00E0002807DB00F01F0120
:1036080001234009024A8B4042F82030704700BF2E
:1036180000E100E000280DDB4309012200F01F0053
:103628000549203302FA00F041F82300BFF34F8F19
:10363800BFF36F8F704700BF00E100E0431EB3F196
:10364800807F0CD24FF0E022002006494FF0F00CAA
:103658005361072381F823C09061136170470120EB
:10366800704700BF00ED00E0BFF35F8F044B0021FF
:103678005A6A22F480325A62C3F89410704700BF25
:1036880000ED00E0064B40F00100C3F894005A6AD0
:1036980042F480325A62BFF34F8FBFF36F8F704787
:1036A80000ED00E0174A4378C2F89830017821B35A
:1036B800436800B5C2F89C30C37A90F80CC01B066A
:1036C80090F80FE043EA0C7390F80AC00B43817B33
:1036D80043EACC4390F80DC043EA8C4390F809C004
:1036E80043EA4143017A43EA0E4343EA0C2343EA9F
:1036F8004103C2F8A0305DF804FBC2F89C10C2F880
:10370800A010704700ED00E0704700BF08B5FFF754
:10371800FBFF08BD002800F0DE81F8B50368044609
:10372800D80730D59F490A69896A02F03802102AF9
:1037380000F00081182A00F0F8806368B3F5803F34
:1037480000F02081002B00F05E81B3F5A02F954B8F
:103758001A6800F02F8222F480321A601A6822F464
:1037680080221A60FFF7DAFE8E4E41F2883705464E
:1037780005E0FFF7D3FE401BB84200F242813368F0
:103788009A03F6D523689D0700F18580D9062FD5C1
:10379800844A1369926A03F03803082B00F0DA8030
:1037A800182B00F0D280E3697E4D002B00F0658174
:1037B8002B6843F080032B60FFF7B0FE064605E058
:1037C800FFF7ACFE801B022800F21B812B68DB058B
:1037D800F6D5FFF7BBFE41F20303984200F20B82D5
:1037E8006B68226A23F0F84343EA82636B602368BC
:1037F8001D0716D563696B4D002B00F01C816B6F9C
:1038080043F001036B67FFF789FE064605E0FFF703
:1038180085FE801B022800F2F4806B6F9807F6D5AE
:1038280023689A0616D5A3695E4D002B00F0148113
:103838002B6843F480532B60FFF770FE064605E0C3
:10384800FFF76CFE801B022800F2DB802B689F04C8
:10385800F6D52368590700F19B80636ACBB1514DB7
:103868002A6902F03802182A6DD0022B2B6823F03F
:1038780080732B6000F03981FFF750FE044605E0A5
:10388800FFF74CFE001B022800F2BB802B689B014F
:10389800F6D40020F8BD434A1369926A13F038033E
:1038A80029D1404BE2681B68590701D5002A4AD044
:1038B8003C4D2B6823F0190313432B60FFF72EFEB2
:1038C800064605E0FFF72AFE801B022800F29980D1
:1038D8002B685B07F6D5FFF739FE41F2030322692F
:1038E80098426B6800F2F08023F47C3343EA023399
:1038F8006B6023684AE7182B00F0E280294DE268E4
:103908002B68002A00F0CB8023F0190313432B60A7
:10391800FFF704FE064604E0FFF700FE801B0228BE
:103928006FD82B685F07F7D5D5E701F003010229A7
:103938007FF403AF1B4A126891037FF524AF6268D6
:10394800002A7FF420AF0120F8BD02F00302012A0B
:103958007FF429AF134B1B68DA0502D5E369802B86
:10396800F1D1FFF7F3FD41F203030E4A9842216AB1
:1039780000F2B380536823F0F84343EA816353604D
:10398800236835E7074A136843F480331360E9E690
:10399800054D2B6843F480732B60FFF7BFFD064687
:1039A80009E000BF0044025800480258FFF7B6FD7E
:1039B800801B642825D82B68DA05F7D5A368012B66
:1039C80000F02281002B00F0FD80052B954B1A6F2B
:1039D80000F0208122F001021A671A6F22F0040217
:1039E8001A67FFF79BFD8F4E41F28837054604E0C2
:1039F800FFF794FD401BB84203D8336F9B07F7D5F8
:103A08002BE70320F8BD874D41F288372B6823F454
:103A180080332B602B6823F480232B60FFF77EFD17
:103A2800064604E0FFF77AFD801BB842E9D82B6808
:103A38009B03F7D4A6E66B6F23F001036B67FFF7D0
:103A48006DFD064604E0FFF769FD801B0228D8D803
:103A58006B6F9907F7D4E3E62B6823F480532B6048
:103A6800FFF75CFD064604E0FFF758FD801B0228BF
:103A7800C7D82B689804F7D4EBE62B6823F08003AB
:103A88002B60FFF74BFD064604E0FFF747FD801B60
:103A98000228B6D82B68DF05F7D42368A8E623F0F8
:103AA80001032B60FFF73AFD064604E0FFF736FDF9
:103AB800801B0228A5D82B685807F7D4236865E629
:103AC80090077FF41BAFECE623F0FE4343EA026362
:103AD8006B6023685AE601207047D36823F07C5353
:103AE80043EA0163D360236882E6FFF717FD0646C1
:103AF80004E0FFF713FD801B022882D82B68990188
:103B0800F7D4A96A484BA26A0B404849454E13436B
:103B1800E26A43EA0213AB62D4E90D32013B013A8F
:103B28005B0212049BB202F4FE021343226B013AB9
:103B3800C2F308021343E26B013A120602F0FE4296
:103B480013432B63EB6A23F00103EB626A6BA36CEC
:103B5800114041EAC3016963EB6A226C23F00C034C
:103B68001343EB62EB6A626C23F002031343EB62CC
:103B7800EB6A43F48033EB62EB6A43F40033EB62A5
:103B8800EB6A43F48023EB62EB6A43F00103EB62D8
:103B98002B6843F080732B60FFF7C0FC044605E0F8
:103BA800FFF7BCFC001B02283FF62BAF33689A01D5
:103BB800F6D56EE642F480221A601A6842F4803222
:103BC8001A60CFE5174D41F288372B6F23F00103B8
:103BD8002B672B6F23F004032B67FFF79FFC064628
:103BE80005E0FFF79BFC801BB8423FF60AAF2B6F3E
:103BF8009807F6D431E6EB68226A23F07C5343EA4F
:103C08000263EB602368F3E5064A136F43F0010390
:103C18001367E6E642F004021A671A6F42F00102DF
:103C28001A67DEE6004402580CFCFFFF0700FFFF9E
:103C3800474A136903F03803102B04D0182B0DD012
:103C48001BB14448704744487047136899064AD5E1
:103C580013684248C3F3C103D8407047936A30B42D
:103C6800946AD56A14F47C7F516BC4F3051038D07C
:103C7800C1F3CC0105F0010503F0030305FB01F1D5
:103C8800012B07EE901AB8EEE77A02D0022B2CD05F
:103C980093B307EE900A9FED325AF8EEE77A136B6A
:103CA800C5EE276ADFED2F5AC3F3080307EE903AF3
:103CB800B7EE006AF8EEE77AE7EE257A77EE867ACD
:103CC80066EEA76A224B1B6BC3F34623013307EE4C
:103CD800903AB8EEE77AC6EE877AFCEEE77A17EE06
:103CE800900A30BC70471D48704707EE900A9FED58
:103CF8001E5AF8EEE77AD2E713689B0620D51468B7
:103D080007EE900A1549F7EE005A136BC4F3C10485
:103D1800F8EEE77A9FED135AC3F30803E14006EE85
:103D2800903A06EE101AF8EEE66AB8EEC66AE7EEC2
:103D3800056A86EE277A76EEA56A66EE876AC1E797
:103D480007EE900A9FED095AF8EEE77AA7E700BF59
:103D58000044025800093D000024F4000090D003FC
:103D68000024744A000000390024744B0024744C69
:103D7800002800F00281874A136803F00F038B4282
:103D88002DE9F04104460D460CD2136823F00F03C9
:103D98000B431360136803F00F038B4202D001201A
:103DA800BDE8F08123685F070BD57B4920698A69E4
:103DB80002F07002904204D98A6922F0700202432C
:103DC8008A611E070BD574496069CA6902F07002DE
:103DD800904204D9CA6922F070020243CA61D80627
:103DE8000BD56D49A069CA6902F4E062904204D912
:103DF800CA6922F4E0620243CA6199060BD5664992
:103E0800E0690A6A02F07002904204D90A6A22F054
:103E1800700202430A629A0740F1A1805E48E16895
:103E2800826902F00F02914204D9826922F00F02DE
:103E38000A438261D80730D5574AA168936923F4A9
:103E480070630B43936161681368022900F09780DF
:103E5800032900F08E80012900F0978058079ED52D
:103E68004D4E41F28838336923F007030B43336121
:103E7800FFF754FB074605E0FFF750FBC01B404522
:103E880000F281803369626803F03803B3EBC20F34
:103E9800F2D12368990706D5E1683F48826902F0A4
:103EA8000F028A425FD83B490A6802F00F02AA4211
:103EB8000AD90A6822F00F022A430A600A6802F047
:103EC8000F02AA427FF46BAF5A070BD5324920691B
:103ED8008A6902F07002904204D28A6922F0700264
:103EE80002438A611F070BD52B496069CA6902F032
:103EF8007002904204D2CA6922F070020243CA6179
:103F0800DE060BD52449A069CA6902F4E062904232
:103F180004D2CA6922F4E0620243CA619D060BD545
:103F28001D4AE169136A03F07003994204D2136AC7
:103F380023F070030B431362FFF77AFE164A034619
:103F4800164892691649C2F30322825C0E2002F0D9
:103F58001F02D340BDE8F0410B60FFF77DBADA07D6
:103F68003FF56AAF9FE7826922F00F021143816132
:103F780099E79F013FF574AF11E7012070479B0354
:103F88003FF56EAF0BE703200AE7DE053FF568AFA4
:103F980005E700BF0020005200440258084301080A
:103FA8005400002408B501F095F9064B06499B69B1
:103FB800064A03F00F03CB5C03F01F03D8401060E0
:103FC80008BD00BF004402580843010858000024F7
:103FD80010B501F07FF90949094A8B69094C03F0CA
:103FE8000F03D35C03F01F03D8402060CB69C3F3F1
:103FF8000213D35C03F01F03D84010BD00440258DD
:10400800084301085800002410B501F063F9094974
:10401800094A8B69094C03F00F03D35C03F01F03B3
:10402800D8402060CB69C3F30223D35C03F01F039D
:10403800D84010BD00440258084301085800002425
:10404800F8B53A4CA36A03F00303032B67D023683F
:1040580006460F4623F080632360FFF75FFA0546A4
:1040680004E0FFF75BFA431B022B56D823681A01BA
:10407800F7D4A36A326823F47C3343EA0233A36299
:10408800D6E90232013B013A5B0212049BB202F408
:10409800FE0213437268013AC2F3080213433269FD
:1040A800013A120602F0FE421343A363E36A7269FF
:1040B80023F0C0031343E362E26AB36922F02002EB
:1040C8001A431B4BE262E26A22F01002E262E16BE1
:1040D800F2690B4043EAC203E363E36A43F0100367
:1040E800E362E36AEFB1012F0CBF43F4801343F49A
:1040F8000013E3620D4C236843F080632360FFF7ED
:104108000DFA054604E0FFF709FA401B022804D817
:1041180023681B01F7D50020F8BD0320F8BD012056
:10412800F8BD43F40023E362E4E700BF004402580B
:104138000700FFFFF8B53A4CA36A03F00303032B0B
:1041480067D0236806460F4623F080532360FFF7A5
:10415800E5F9054604E0FFF7E1F9431B022B56D8C1
:1041680023689A00F7D4A36A326823F07C7343EA81
:104178000253A362D6E90232013B013A5B02120400
:104188009BB202F4FE0213437268013AC2F30802BA
:1041980013433269013A120602F0FE4213432364C4
:1041A800E36A726923F440631343E362E26AB36922
:1041B80022F400721A431B4BE262E26A22F4807214
:1041C800E262616CF2690B4043EAC2036364E36A2A
:1041D80043F48073E362E36AEFB1012F0CBF43F449
:1041E800000343F08073E3620D4C236843F080536F
:1041F8002360FFF793F9054604E0FFF78FF9401BAA
:10420800022804D823689B00F7D50020F8BD0320B6
:10421800F8BD0120F8BD43F48003E362E4E700BF82
:10422800004402580700FFFF2DE9F84303680446DD
:1042380013F0006622D0426EB2F5001F00F0CE8463
:1042480011D8002A00F0F884B2F5801F40F0F184FC
:1042580002210430FFF7F4FE0646002E40F0868463
:10426800626E236803E0B2F5401F40F0E284A8487C
:104278000026016D21F440110A430265DD050AD5C7
:10428800626D042A06D8DFE812F0A20493049A04A7
:10429800DF02DF020126354698051BD5A26D802A6C
:1042A80000F05B8400F2EC80002A00F08B83402A47
:1042B80040F0ED800021201DFFF7C2FE236805466F
:1042C800002D40F067839249A06D0A6D22F4E072D8
:1042D80002430A6559051FD5D4F8A420B2F5800F0A
:1042E80000F0478400F2D680002A00F07183B2F50E
:1042F800001F40F0D7800021201DFFF7A1FE236892
:104308000546002D40F044838149D4F8A4008A6D05
:1043180022F4600202438A651A051FD5D4F8A82042
:10432800B2F1007F00F02E8400F2BF80002A00F076
:104338005583B2F1807F40F0C0800021201DFFF737
:104348007FFE23680546002D40F02A837049D4F883
:10435800A8008A6D22F0E06202438A659F0118D5A1
:10436800A26C202A00F0DA8300F2AA803AB1102A5F
:1043780040F0A9806649CA6A42F40032CA62002D38
:1043880040F059836249A06CCA6C22F030020243A3
:10439800CA64D8041DD5E26DB2F5005F00F0FB8356
:1043A80000F29480002A00F01F83B2F5805F40F08D
:1043B80095800021201DFFF743FE23680546002D48
:1043C80040F0EC825249E06D0A6D22F4E04202436B
:1043D8000A6599041AD5226EB2F5003F00F074837D
:1043E8007FD84AB1B2F5803F40F083800121201D7B
:1043F800FFF726FE23680546002D40F01E8344493A
:10440800206E0A6D22F4E02202430A655A041BD585
:10441800D4F8AC20B2F1005F00F060836CD842B1F0
:10442800B2F1805F70D10121201DFFF709FE2368DA
:104438000546002D40F003833549D4F8AC008A6D59
:1044480022F0E04202438A651F040DD5E26EB2F104
:10445800805F00F03183B2F1005F00F00182002A32
:1044680000F0048201263546D8015DD5626C032A26
:1044780000F20A84DFE812F0540017034E005400DB
:10448800C02A3FF41DAFB2F5807F3FF419AF012673
:1044980035461FE7B2F5C00F3FF433AFB2F5000F52
:1044A8003FF42FAF0126354636E7B2F1407F3FF49F
:1044B8004AAFB2F1806F3FF446AF012635464DE76B
:1044C800302A3FF45CAF0126354662E7B2F5405F1B
:1044D8003FF475AFB2F5804F3FF471AF0126354612
:1044E80077E722F48031B1F5802F85D0B2F5403FCF
:1044F80082D00126354689E722F08051B1F1804FFC
:1045080097D0B2F1405F94D0012635469CE700BFB2
:10451800004402580221201DFFF792FD236805463A
:10452800002D00F06B822E46590200F1F081DF0762
:104538002FD5A26F282A2AD8DFE812F0D301290044
:104548002900290029002900290029006D032900D4
:10455800290029002900290029002900CC01290067
:10456800290029002900290029002900D301290050
:10457800290029002900290029002900D301290040
:10458800290029002900290029002900D301012632
:104598003546980716D5626F052A00F27883DFE85A
:1045A80012F00D00300306000D000D000D00012172
:1045B80004F12400FFF7BEFD23680546002D00F036
:1045C80025822E46590717D5D4F89020052A00F2DF
:1045D8006183DFE812F00D000C0306000D000D00EA
:1045E8000D00012104F12400FFF7A4FD236805460E
:1045F800002D00F013822E469A061DD5D4F88C2083
:10460800B2F1005F00F0458200F2DC804AB1B2F1FD
:10461800805F40F0E1800021201DFFF711FD236835
:104628000546002D40F00582A949D4F88C004A6D52
:1046380022F0E04202434A655F061DD5D4F898206F
:10464800B2F5006F00F0548200F2C9804AB1B2F5A9
:10465800806F40F0CE800021201DFFF7F1FC236819
:104668000546002D40F0C8819949D4F898008A6D14
:1046780022F4E05202438A6518061DD5D4F89C201E
:10468800B2F5804F00F03F8200F2B6804AB1B2F531
:10469800005F40F0BB800021201DFFF7D1FC23689C
:1046A8000546002D40F0A6818949D4F89C008A6D02
:1046B80022F4604202438A6519070BD5D4F88010AA
:1046C800B1F5805F00F03E828148426D22F440528D
:1046D8000A434265DA060BD5D4F89410B1F5807F09
:1046E80000F025827A48826D22F440720A4382657E
:1046F8001F030ED5D4F8A010B1F5803F00F0D48088
:10470800B1F5003F00F0D780002900F0BA810126FA
:10471800354658030FD5D4F88420B2F5001F00F0B1
:10472800B080B2F5401F00F0B380B2F5801F00F0F2
:10473800A08101263546D90309D5E26C002A00F08C
:104748008681B2F5803F00F02D81012635469A001A
:1047580000F1D2809F035CD4301E18BF0120DE0216
:1047680006D55B49256F0A6D22F000422A430A6587
:10477800DD0007D55649D4F8B4500A6922F48042BE
:104788002A430A61990206D55149A56E0A6D22F09D
:1047980080722A430A655A0009D54D4A116921F4E5
:1047A800004111611169D4F8B85029431161002BF7
:1047B80006DA474A216DD36C23F040530B43D36488
:1047C800BDE8F88322F08051B1F1804F3FF429AF62
:1047D800B2F1405F3FF425AF012635462CE722F4BD
:1047E8008061B1F5805F3FF43CAFB2F5406F3FF4B4
:1047F80038AF012635463FE722F40051B1F5004FA6
:104808003FF44FAFB2F5C04F3FF44BAF01263546EA
:1048180052E7E26FB2F5807F00F0228106D922F4D8
:104828008071B1F5007F03D0012098E7002AFBD101
:10483800002DF9D1264D301E696D18BF012021F4D5
:1048480040710A436A658AE73546002D40F0A48026
:104858001F49606D0A6D22F0070202430A651BE5D5
:104868000121201DFFF7ECFB23680546002D40F0D1
:10487800DE801749E06E0A6D22F0405202430A6555
:10488800F2E5012104F12400FFF754FC23680546F2
:10489800002D40F0DA800E49D4F884004A6D22F4E5
:1048A800401202434A6546E7022104F12400FFF75B
:1048B80041FC23680546002D40F0C5800449D4F822
:1048C800A0008A6D22F4403202438A6521E700BFC6
:1048D80000440258012104F12400FFF72BFC23684F
:1048E8000546002D40F0AD80AF49A06F4A6D22F01B
:1048F800380202434A654CE6022104F12400FFF71E
:1049080019FC236800283FF425AF012622E7A74FAA
:104918003B6843F480733B60FEF700FE804606E088
:10492800FEF7FCFDA0EB0800642800F27E813B68DE
:10493800DA05F5D5002D40F0A4819B4AD4F8B030B3
:10494800116F594011F4407F0BD0116F106F21F493
:10495800407140F480301067106F20F48030106789
:104968001167B3F5807F00F06E8103F44072B2F5F1
:10497800407F00F07C818C490A6922F47C520A61EC
:10498800894AC3F30B03116F0B4313672368CEE502
:104998002E46C1E42E469DE42E467DE42E4618E5BB
:1049A8002E46DBE40221201DFFF74AFB054623685B
:1049B800002D53D17C49E06CCA6C22F4803202434A
:1049C800CA64C4E67849CA6A42F40032CA6277E423
:1049D8007549CA6A42F40032CA6292E47249CA6AE4
:1049E80042F40032CA62AEE46F49CA6A42F4003245
:1049F800CA62E4E42E465FE62E463DE66A49606CEC
:104A0800CA6C22F003020243CA648DE56649606FEE
:104A18004A6D22F0070202434A65D3E56249D4F899
:104A280090008A6D22F0070202438A65E4E52E466B
:104A38001AE52E4600E62E46ABE42E46E6E42E4660
:104A480002E52E46A5E52E4663E62E4673E6564950
:104A5800CA6A42F40032CA62002DABD02E4676E60E
:104A68005148C16A41F40031C162002D7FF4DCAEC7
:104A7800E0E64D49CA6A42F40032CA62002DE4D128
:104A880009E7201DFFF7DCFA05462368002DDAD177
:104A980014E7022104F12400FFF74CFB05462368C4
:104AA800002DC6D1C0E54049CA6A42F40032CA6244
:104AB800002D7FF438ADA1E73B49CA6A42F40032C1
:104AC800CA62002DB3D1D4E6012104F12400FFF716
:104AD80031FB05462368002DAFD190E4012104F194
:104AE8002400FFF727FB05462368002DA7D1A3E480
:104AF800022104F12400FFF71DFB05462368002D61
:104B08007FF47AAFB0E5022104F12400FFF712FB2D
:104B180005462368002D7FF46DAFC5E50221201DF1
:104B2800FFF78EFA05462368002D84D12AE4022176
:104B380004F12400FFF7FEFA236800283FF4D8ADFB
:104B48000126D5E5022104F12400FFF7F3FA2368D2
:104B580000283FF4BFAD0126BCE5002104F1240084
:104B6800FFF7E8FA23680546FFF7AABB2368FFF7B3
:104B780085BB002104F12400FFF7DCFA2368054611
:104B8800FFF7BFBB002104F12400FFF7D3FA236825
:104B98000546FFF7D8BB002104F12400FFF7CAFA45
:104BA800236805460BE400BF004402580048025839
:104BB8000021201DFFF744FA2368054645E6002139
:104BC80004F12400FFF7B6FA236805463DE63349A9
:104BD8003546CA6A42F40032CA6236E602212430F7
:104BE800FFF7A8FA0646002E3FF43AABBEE70121CC
:104BF800201DFFF725FA05462368002D7FF4FBAC3E
:104C08000CE70121201DFFF71BFA05462368002D3C
:104C18007FF4D7ACFAE60121201DFFF711FA05460B
:104C28002368002D7FF40DAF5EE603262368354622
:104C38007DE40126FFF722BB1848C16A41F4003120
:104C4800C162FFF714BBFEF769FCDFF85080074626
:104C580041F2883904E0FEF761FCC01B4845E4D8FE
:104C6800D8F870309B07F6D5D4F8B0307DE60B48FD
:104C78000B4A016902EA131221F47C510A430261CA
:104C88007EE623682E4652E4012635464CE401268A
:104C9800354697E401263546AEE400BF0044025885
:104CA800CFFFFF0008B5FFF77DF9054B054A1B6AE2
:104CB800C3F30213D35C03F01F03D84008BD00BF41
:104CC8000044025808430108584B70B4996A9D6A19
:104CD800DE6A15F47C3FC5F30532DC6B5CD0C4F3A7
:104CE800CC0406F0100601F0030106FB04F40129C8
:104CF80007EE904AB8EEE77A03D0022975D000296A
:104D08004FD007EE902ADFED4A6AF8EEE77A9B6B00
:104D180086EEA76A9FED475AC3F3080306EE903A5A
:104D2800F7EE005AF8EEE66AE7EE056A76EEA56A4F
:104D380066EE266A3D4AB7EE006A936BC3F34623D4
:104D480007EE103AB8EEC77A70BC37EE067AC6EEB0
:104D5800877AFCEEE77AC0ED007A936BC3F30643DB
:104D680007EE103AB8EEC77A37EE067AC6EE877ABB
:104D7800FCEEE77AC0ED017A936BC3F3066307EEA6
:104D8800903AF8EEE77A77EE867A86EEA77ABCEE66
:104D9800C77A80ED027A704770BCC0E90022826051
:104DA80070471968890627D51C6807EE902A22499A
:104DB800F7EE005A9B6BC4F3C102F8EEE77A9FED59
:104DC8001D5AC3F30803D14006EE903A06EE101AB6
:104DD800F8EEE66AB8EEC66AE7EE056A86EE277A66
:104DE80076EEA56A66EE876AA4E707EE902ADFEDFD
:104DF800136AF8EEE77A8AE707EE902A9FED105AD1
:104E08009B6BB7EE006AF8EEE77ADFED0A5AC3F358
:104E18000803C5EE276A07EE903AF8EEE77AE7EE60
:104E2800257A77EE867A66EEA76A83E70044025809
:104E38000024744A000000390090D0030024744B09
:104E48000024744C584B70B4996A9D6ADE6A15F058
:104E58007C7FC5F305525C6C5CD0C4F3CC0406F4CB
:104E6800807601F0030106FB04F4012907EE904A5D
:104E7800B8EEE77A03D0022975D000294FD007EEA3
:104E8800902ADFED4A6AF8EEE77A1B6C86EEA76A8D
:104E98009FED475AC3F3080306EE903AF7EE005A1F
:104EA800F8EEE66AE7EE056A76EEA56A66EE266A29
:104EB8003D4AB7EE006A136CC3F3462307EE103A77
:104EC800B8EEC77A70BC37EE067AC6EE877AFCEE83
:104ED800E77AC0ED007A136CC3F3064307EE103A85
:104EE800B8EEC77A37EE067AC6EE877AFCEEE77A2E
:104EF800C0ED017A136CC3F3066307EE903AF8EE3F
:104F0800E77A77EE867A86EEA77ABCEEC77A80EDE6
:104F1800027A704770BCC0E9002282607047196845
:104F2800890627D51C6807EE902A2249F7EE005A11
:104F38001B6CC4F3C102F8EEE77A9FED1D5AC3F368
:104F48000803D14006EE903A06EE101AF8EEE66A2B
:104F5800B8EEC66AE7EE056A86EE277A76EEA56AA7
:104F680066EE876AA4E707EE902ADFED136AF8EE8B
:104F7800E77A8AE707EE902A9FED105A1B6CB7EE86
:104F8800006AF8EEE77ADFED0A5AC3F30803C5EEC4
:104F9800276A07EE903AF8EEE77AE7EE257A77EE99
:104FA800867A66EEA76A83E7004402580024744AAA
:104FB800000000390090D0030024744B0024744C86
:104FC800584B70B4996A9D6ADE6A15F47C7FC5F304
:104FD80005125C6B5CD0C4F3CC0406F0010601F04A
:104FE800030106FB04F4012907EE904AB8EEE77ABC
:104FF80003D0022975D000294FD007EE902ADFEDA3
:105008004A6AF8EEE77A1B6B86EEA76A9FED475A65
:10501800C3F3080306EE903AF7EE005AF8EEE66A94
:10502800E7EE056A76EEA56A66EE266A3D4AB7EEB1
:10503800006A136BC3F3462307EE103AB8EEC77A3B
:1050480070BC37EE067AC6EE877AFCEEE77AC0EDDA
:10505800007A136BC3F3064307EE103AB8EEC77A2B
:1050680037EE067AC6EE877AFCEEE77AC0ED017A6B
:10507800136BC3F3066307EE903AF8EEE77A77EE20
:10508800867A86EEA77ABCEEC77A80ED027A7047F8
:1050980070BCC0E90022826070471968890627D56C
:1050A8001C6807EE902A2249F7EE005A1B6BC4F3DE
:1050B800C102F8EEE77A9FED1D5AC3F30803D14009
:1050C80006EE903A06EE101AF8EEE66AB8EEC66AF0
:1050D800E7EE056A86EE277A76EEA56A66EE876AB7
:1050E800A4E707EE902ADFED136AF8EEE77A8AE77D
:1050F80007EE902A9FED105A1B6BB7EE006AF8EE88
:10510800E77ADFED0A5AC3F30803C5EE276A07EE0C
:10511800903AF8EEE77AE7EE257A77EE867A66EE49
:10512800A76A83E7004402580024744A0000003943
:105138000090D0030024744B0024744CB0F5807F99
:1051480000B585B048D0B0F5007F11D0B0F5806FBC
:1051580000F08280B0F5006F52D0B0F5805F2CD09F
:10516800B0F5002F00F09680002005B05DF804FB34
:10517800534A136D03F4E073802B59D012D9C02B16
:1051880026D0B3F5807FEFD1D36C13F040535BD0BA
:10519800B3F1805F00F08D80B3F1005F494818BF1C
:1051A8000020E2E7002B3CD0402BDDD101A8FFF71F
:1051B8008BFD019805B05DF804FB414A136D03F4BB
:1051C800E043B3F5005F33D029D9B3F5405F58D138
:1051D8003D4805B05DF804FB394B1B6D03F0070330
:1051E800042BC1D801A252F823F000BF2B520008AB
:1051F800B551000839520008D95100084752000833
:105208002F4A936D03F0E063B3F1007F10D01DD9EE
:10521800B3F1407FDCD0B3F1806FB5D0A4E7002BA9
:1052280034D101A8FFF7CCFE029805B05DF804FB65
:1052380001A8FFF707FE019805B05DF804FB204BB5
:10524800DB6C13F04053A3D120488EE7002BE8D045
:10525800B3F1807FAAD087E7194A936D03F46003FE
:10526800B3F5800FE4D005D8002BDAD0B3F5001FD2
:105278009CD079E7B3F5C00FAAD0B3F5000F83D05F
:1052880072E7B3F5804F3FF47FAF6DE7B3F5805F0A
:105298008CD069E70A4A936D03F44033B3F5803F35
:1052A80009D0B3F5003F3FF46FAF002B7FF45CAF3C
:1052B8007CE7074859E701A8FFF7C4FD039854E7BE
:1052C800004402580024F4000080BB000090D00382
:1052D80000093D0008B5FEF7ABFC064B06499B6983
:1052E800064AC3F30323CB5C03F01F03D8401060C6
:1052F80008BD00BF004402580843010854000024B8
:10530800084603F065B900BF143001F013BA00BFB6
:10531800143001F00BBA00BF38B500F1140504468B
:105328002DED028B284601F0F3F9284601F0FEF92D
:105338002846B0EE408A01F0E7F9D0ED007AF8EEA1
:10534800677A88EE277ABDEC028B84ED0E7A38BD39
:1053580008B5143001F0D8F9006808BD253001F00F
:10536800CFBF00BF10B540F203338EB000244FF614
:105378000B7240F20341ADF8083009A80123ADF8DB
:105388001020ADF824202246ADF80C1000940299A4
:1053980007940C94CDE90544CDE90A4401F0CAFD0F
:1053A80004A8012322460399009401F0C3FD09A82B
:1053B80001F0A6FE10B901200EB010BD04A801F03E
:1053C8009FFEA0420CBF022020460EB010BD00BFB9
:1053D8002DE9F04103239AB0012700240646CDE9C0
:1053E80014373B4BCDE9104340F20453CDE916473F
:1053F800ADF84830FFF7B6FFB842054625D0022879
:1054080045D040F60132334B0DF12C081894ADF815
:105418002C200B981997CDF84A3000F0E3F810A922
:1054280006F13C0002F0B4FE302003224FF07E5318
:1054380041460D930E93CDE90B02F26B06F1140071
:1054480001F02AF91AB0BDE8F0811023214A06A913
:1054580006908DF828300DF12C081F4BCDF84A2006
:1054680007930294CDE91804CDE9080402A802F0D4
:10547800C7F80823029A03A94046ADF80C508DF8E6
:105488000E40049505930B9400F0ECF8C7E7002054
:105498000121104B0DF12C083A460094CDF84A3002
:1054A8004FF60B730C94ADF82C302346CDE9180158
:1054B80040F601314046ADF818100699CDE90D4483
:1054C80001F038FD2146404601F026FEA7E700BF5F
:1054D80004020404040604030704010B2DE9F04741
:1054E80004462DED028B82B000294DD0012140F2F7
:1054F800011200230091ADF804208DF80630364AD9
:105508000127364B04F10409354904F12908626082
:1055180040F20272A36040F60663E16004F1250AD6
:10552800A4F82520A4F82930278284F8277084F865
:105538002B7003F0E9F9054603F04CF86946064676
:1055480050BB4DB304F130008DF8067003F064F9D8
:10555800072D3CD104F114052046FFF739FF2846F2
:1055680001F0E4F82846B0EE408A01F0CDF8D0ED1D
:10557800007AF8EE677A88EE277A84ED0E7A02B020
:10558800BDEC028BBDE8F08740F2011300918DF865
:105598000610ADF80430B2E704F1300003F03CF92E
:1055A800072D11D04946204602F072FA0EB9002D97
:1055B800D0D1504601F0BAFD404601F0B7FD04F1E4
:1055C800120000F079F9C5E7002EF2D1C2E749468A
:1055D800204602F05DFABDE705080509050705063E
:1055E800050A060610B584B003460124ADF8040088
:1055F80003A8ADF80C30ADF80E4001F097FD214638
:1056080003A801F07DFE204602F0E2FF002103A876
:1056180001F076FE204602F0DBFF214603A801F0E8
:105628006FFE04B010BD00BF10B5C2F3002384B0F4
:105638000C46017C8DF80D2043EA4402FA2402232B
:105648008DF80C2003AA009402F070F818B1012418
:10565800204604B010BD04460A2002F0B9FF2046D7
:1056680004B010BD034670B543F8042B044684B05B
:1056780007C983E80700A37983B91A210B461E22BC
:10568800FA2523742046ADF80C20022303AA0095BE
:1056980002F04CF828B1012004B070BD1B210B4664
:1056A800EDE70A2002F094FF4FF4B8520095022368
:1056B800ADF80C20204603AA217C02F037F8002818
:1056C800E9D10A2002F084FF41F202720095022318
:1056D800ADF80C20204603AA217C02F027F8002808
:1056E800D9D10A2002F074FF042200950223ADF8F4
:1056F8000C20204603AA217C02F018F80028CAD101
:105708000A2002F065FF062200950223ADF80C205E
:10571800204603AA217C02F009F80028BBD10A2000
:1057280002F056FF41F2082200950223ADF80C2042
:10573800204603AA217C01F0F9FF0028ABD10A20FA
:10574800064602F045FF0095022303AA217C204665
:10575800ADF80C6001F0EAFF00289CD1304602F059
:1057680037FF009522790C232046002A8DF80C304B
:1057780003AA4FF0020314BF622142218DF80D10D5
:10578800217C01F0D3FF002885D1304602F020FFAC
:105798002279D4E902310B43DBB20AB943F0400362
:1057A80062790AB143F020030E22FA258DF80D30F4
:1057B8002046009502238DF80C2003AA217C01F0D5
:1057C800B5FF00287FF467AF0A2002F001FF10221E
:1057D80000950223ADF80C20204603AA217C01F095
:1057E800A5FF00287FF457AF0A2002F0F1FE12212E
:1057F80000950223ADF80C1003AA217C204601F085
:1058080095FF00287FF447AF0A2002F0E1FE01224D
:1058180009212046FFF708FF003818BF01203BE7A1
:10582800F0B5102387B0234C01220025012600275C
:1058380002A920460195CDE902234FF48052CDE913
:10584800046707F0C3FE6420FDF76EFE02A94FF45B
:1058580080522046CDE9046702261027CDE9026769
:1058680007F0B4FE0322102302A92046CDE9022343
:1058780000230422CDE904234FF4805207F0A6FE4A
:1058880040F23223042202A9019310232046CDE9D5
:105898000223019A012305924FF48052049307F0E2
:1058A80095FE40F60601204607F0B0FE284607B0F0
:1058B800F0BD00BF400D00241C4B00221C494FF0D6
:1058C800400C30B5054689B00220596007219A601E
:1058D8001A620124DA620A224FF4006EDC60069232
:1058E8002022CDE9000104200821CDE9020103208E
:1058F8001021CDE9040108206946C3E904024FF4E8
:10590800C072181DC3E906C24FF48052C3E909E208
:1059180007F032FE38B92846FFF782FF003818BF73
:10592800012009B030BD204609B030BD3C0D00242F
:1059380040410052614A0021D0B513688EB00A91E7
:10594800002B40F0B9805E4B01214FF683700C2488
:1059580011600221D3F8D4200026032742F4805294
:10596800C3F8D420D3F8D42002F480520092009ACD
:10597800D3F8E02042F01002C3F8E020D3F8E0208A
:1059880002F010020192019AD3F8E02042F040029E
:10599800C3F8E020D3F8E02002F040020292029A15
:1059A800D3F8E02042F00802C3F8E020D3F8E02062
:1059B80002F008020392039AD3F8E02042F48072BE
:1059C800C3F8E020D3F8E02002F480720492049A2D
:1059D800D3F8E02042F08002C3F8E020D3F8E020BA
:1059E80002F080020592059AD3F8E02042F02002E6
:1059F800C3F8E020D3F8E02002F020020692069ACD
:105A0800D3F8E02042F00402C3F8E020D3F8E030F5
:105A18000C9403F0040307930323079A0B93CDE92F
:105A2800080108A9274804F03BFF48F2371202236F
:105A380008A925480C94CDE90823CDE90A6704F0A4
:105A48002FFF4CF20372022308A920480C94CDE9D9
:105A58000823CDE90A6704F023FF40F2FF6202231E
:105A680008A91B480C94CDE90823CDE90A6704F07E
:105A780017FF4FF60C72022308A916480C94CDE9BB
:105A88000823CDE90A6704F00BFF4FF63F02022313
:105A980008A911480C94CDE90823CDE90A6704F058
:105AA800FFFE2022022308A90A480C94CDE90A67C0
:105AB800CDE9082304F0F4FE0EB0D0BD380D002463
:105AC800004402580010025800180258000C0258EE
